{
  "_format": "hh-sol-artifact-1",
  "contractName": "SnapSwap",
  "sourceName": "contracts/SnapSwap.sol",
  "abi": [
    {
      "inputs": [
        {
          "internalType": "address",
          "name": "_id",
          "type": "address"
        }
      ],
      "name": "allSwapsOfUser",
      "outputs": [
        {
          "components": [
            {
              "internalType": "string",
              "name": "fromTokens",
              "type": "string"
            },
            {
              "internalType": "string",
              "name": "toTokens",
              "type": "string"
            },
            {
              "internalType": "uint256",
              "name": "currPrice",
              "type": "uint256"
            },
            {
              "internalType": "uint256",
              "name": "convertedPrice",
              "type": "uint256"
            }
          ],
          "internalType": "struct SnapSwap.TokenPortfolio[]",
          "name": "",
          "type": "tuple[]"
        }
      ],
      "stateMutability": "view",
      "type": "function"
    },
    {
      "inputs": [
        {
          "internalType": "address",
          "name": "_id",
          "type": "address"
        }
      ],
      "name": "allUserData",
      "outputs": [
        {
          "components": [
            {
              "internalType": "address",
              "name": "id",
              "type": "address"
            },
            {
              "internalType": "string[]",
              "name": "tokens",
              "type": "string[]"
            },
            {
              "internalType": "uint256[]",
              "name": "tokenAmt",
              "type": "uint256[]"
            }
          ],
          "internalType": "struct SnapSwap.Person",
          "name": "",
          "type": "tuple"
        }
      ],
      "stateMutability": "view",
      "type": "function"
    },
    {
      "inputs": [
        {
          "internalType": "address",
          "name": "_id",
          "type": "address"
        },
        {
          "internalType": "string",
          "name": "_token",
          "type": "string"
        }
      ],
      "name": "countOfIndivisualToken",
      "outputs": [
        {
          "internalType": "uint256",
          "name": "",
          "type": "uint256"
        }
      ],
      "stateMutability": "view",
      "type": "function"
    },
    {
      "inputs": [
        {
          "internalType": "address",
          "name": "_id",
          "type": "address"
        },
        {
          "internalType": "uint256",
          "name": "_flag",
          "type": "uint256"
        }
      ],
      "name": "entireMFPortfolio",
      "outputs": [
        {
          "components": [
            {
              "internalType": "uint256",
              "name": "flag",
              "type": "uint256"
            },
            {
              "internalType": "string",
              "name": "name",
              "type": "string"
            },
            {
              "internalType": "string[]",
              "name": "tokens",
              "type": "string[]"
            },
            {
              "internalType": "uint256",
              "name": "investement",
              "type": "uint256"
            }
          ],
          "internalType": "struct SnapSwap.MF",
          "name": "",
          "type": "tuple"
        }
      ],
      "stateMutability": "view",
      "type": "function"
    },
    {
      "inputs": [
        {
          "internalType": "address",
          "name": "",
          "type": "address"
        },
        {
          "internalType": "string",
          "name": "",
          "type": "string"
        }
      ],
      "name": "indTokenPortfolio",
      "outputs": [
        {
          "internalType": "uint256",
          "name": "",
          "type": "uint256"
        }
      ],
      "stateMutability": "view",
      "type": "function"
    },
    {
      "inputs": [
        {
          "internalType": "address",
          "name": "_id",
          "type": "address"
        },
        {
          "internalType": "string[]",
          "name": "_tokens",
          "type": "string[]"
        },
        {
          "internalType": "uint256[]",
          "name": "_tokenAmt",
          "type": "uint256[]"
        }
      ],
      "name": "initializeInvestors",
      "outputs": [],
      "stateMutability": "nonpayable",
      "type": "function"
    },
    {
      "inputs": [
        {
          "internalType": "address",
          "name": "_id",
          "type": "address"
        },
        {
          "internalType": "uint256",
          "name": "flag",
          "type": "uint256"
        },
        {
          "internalType": "string",
          "name": "_name",
          "type": "string"
        },
        {
          "internalType": "uint256",
          "name": "_investement",
          "type": "uint256"
        },
        {
          "internalType": "string[]",
          "name": "_tokens",
          "type": "string[]"
        },
        {
          "internalType": "string",
          "name": "_fromToken",
          "type": "string"
        }
      ],
      "name": "initializeMutualFund",
      "outputs": [],
      "stateMutability": "payable",
      "type": "function"
    },
    {
      "inputs": [
        {
          "internalType": "address",
          "name": "",
          "type": "address"
        }
      ],
      "name": "investors",
      "outputs": [
        {
          "internalType": "address",
          "name": "id",
          "type": "address"
        }
      ],
      "stateMutability": "view",
      "type": "function"
    },
    {
      "inputs": [
        {
          "internalType": "address",
          "name": "",
          "type": "address"
        },
        {
          "internalType": "uint256",
          "name": "",
          "type": "uint256"
        }
      ],
      "name": "mfPortfolio",
      "outputs": [
        {
          "internalType": "uint256",
          "name": "flag",
          "type": "uint256"
        },
        {
          "internalType": "string",
          "name": "name",
          "type": "string"
        },
        {
          "internalType": "uint256",
          "name": "investement",
          "type": "uint256"
        }
      ],
      "stateMutability": "view",
      "type": "function"
    },
    {
      "inputs": [
        {
          "internalType": "address",
          "name": "_id",
          "type": "address"
        },
        {
          "internalType": "string",
          "name": "_fromTokenId",
          "type": "string"
        },
        {
          "internalType": "string",
          "name": "_toTokenId",
          "type": "string"
        },
        {
          "internalType": "uint256",
          "name": "_currPrice",
          "type": "uint256"
        },
        {
          "internalType": "uint256",
          "name": "_convertedPrice",
          "type": "uint256"
        }
      ],
      "name": "tokenSwap",
      "outputs": [],
      "stateMutability": "payable",
      "type": "function"
    },
    {
      "inputs": [
        {
          "internalType": "address",
          "name": "",
          "type": "address"
        },
        {
          "internalType": "uint256",
          "name": "",
          "type": "uint256"
        }
      ],
      "name": "tokensPortfolio",
      "outputs": [
        {
          "internalType": "string",
          "name": "fromTokens",
          "type": "string"
        },
        {
          "internalType": "string",
          "name": "toTokens",
          "type": "string"
        },
        {
          "internalType": "uint256",
          "name": "currPrice",
          "type": "uint256"
        },
        {
          "internalType": "uint256",
          "name": "convertedPrice",
          "type": "uint256"
        }
      ],
      "stateMutability": "view",
      "type": "function"
    }
  ],
  "bytecode": "0x608060405234801561001057600080fd5b50612712806100206000396000f3fe60806040526004361061009c5760003560e01c806387574dca1161006457806387574dca146101c3578063b0bdd7b714610200578063b1cd210a1461023d578063c64f630f14610259578063e0db614d14610275578063f657b43d146102b25761009c565b80630d9ed06e146100a157806311ea2dc0146100ca578063201231721461010a578063212ec923146101495780636f7bc9be14610186575b600080fd5b3480156100ad57600080fd5b506100c860048036038101906100c39190611875565b6102ef565b005b3480156100d657600080fd5b506100f160048036038101906100ec9190611900565b610510565b60405161010194939291906119ce565b60405180910390f35b34801561011657600080fd5b50610131600480360381019061012c9190611900565b61066d565b60405161014093929190611a21565b60405180910390f35b34801561015557600080fd5b50610170600480360381019061016b9190611a5f565b61072c565b60405161017d9190611c11565b60405180910390f35b34801561019257600080fd5b506101ad60048036038101906101a89190611a5f565b610901565b6040516101ba9190611c42565b60405180910390f35b3480156101cf57600080fd5b506101ea60048036038101906101e59190611c5d565b61093f565b6040516101f79190611cb9565b60405180910390f35b34801561020c57600080fd5b5061022760048036038101906102229190611900565b61097a565b6040516102349190611e00565b60405180910390f35b61025760048036038101906102529190611e22565b610b64565b005b610273600480360381019061026e9190611f03565b610d61565b005b34801561028157600080fd5b5061029c60048036038101906102979190611c5d565b611112565b6040516102a99190611cb9565b60405180910390f35b3480156102be57600080fd5b506102d960048036038101906102d49190611a5f565b611178565b6040516102e691906120cb565b60405180910390f35b8273ffffffffffffffffffffffffffffffffffffffff163373ffffffffffffffffffffffffffffffffffffffff161461035d576040517f08c379a000000000000000000000000000000000000000000000000000000000815260040161035490612139565b60405180910390fd5b600060405180606001604052808573ffffffffffffffffffffffffffffffffffffffff16815260200184815260200183815250905080600260008673ffffffffffffffffffffffffffffffffffffffff1673ffffffffffffffffffffffffffffffffffffffff16815260200190815260200160002060008201518160000160006101000a81548173ffffffffffffffffffffffffffffffffffffffff021916908373ffffffffffffffffffffffffffffffffffffffff1602179055506020820151816001019080519060200190610435929190611358565b5060408201518160020190805190602001906104529291906113b1565b5090505060005b83518110156105095782818151811061047557610474612159565b5b6020026020010151600160008773ffffffffffffffffffffffffffffffffffffffff1673ffffffffffffffffffffffffffffffffffffffff1681526020019081526020016000208583815181106104cf576104ce612159565b5b60200260200101516040516104e491906121c4565b90815260200160405180910390208190555080806105019061220a565b915050610459565b5050505050565b6000602052816000526040600020818154811061052c57600080fd5b90600052602060002090600402016000915091505080600001805461055090612281565b80601f016020809104026020016040519081016040528092919081815260200182805461057c90612281565b80156105c95780601f1061059e576101008083540402835291602001916105c9565b820191906000526020600020905b8154815290600101906020018083116105ac57829003601f168201915b5050505050908060010180546105de90612281565b80601f016020809104026020016040519081016040528092919081815260200182805461060a90612281565b80156106575780601f1061062c57610100808354040283529160200191610657565b820191906000526020600020905b81548152906001019060200180831161063a57829003601f168201915b5050505050908060020154908060030154905084565b6003602052816000526040600020602052806000526040600020600091509150508060000154908060010180546106a390612281565b80601f01602080910402602001604051908101604052809291908181526020018280546106cf90612281565b801561071c5780601f106106f15761010080835404028352916020019161071c565b820191906000526020600020905b8154815290600101906020018083116106ff57829003601f168201915b5050505050908060030154905083565b60606000808373ffffffffffffffffffffffffffffffffffffffff1673ffffffffffffffffffffffffffffffffffffffff168152602001908152602001600020805480602002602001604051908101604052809291908181526020016000905b828210156108f657838290600052602060002090600402016040518060800160405290816000820180546107bf90612281565b80601f01602080910402602001604051908101604052809291908181526020018280546107eb90612281565b80156108385780601f1061080d57610100808354040283529160200191610838565b820191906000526020600020905b81548152906001019060200180831161081b57829003601f168201915b5050505050815260200160018201805461085190612281565b80601f016020809104026020016040519081016040528092919081815260200182805461087d90612281565b80156108ca5780601f1061089f576101008083540402835291602001916108ca565b820191906000526020600020905b8154815290600101906020018083116108ad57829003601f168201915b50505050508152602001600282015481526020016003820154815250508152602001906001019061078c565b505050509050919050565b60026020528060005260406000206000915090508060000160009054906101000a900473ffffffffffffffffffffffffffffffffffffffff16905081565b600160205281600052604060002081805160208101820180518482526020830160208501208183528095505050505050600091509150505481565b6109826113fe565b600360008473ffffffffffffffffffffffffffffffffffffffff1673ffffffffffffffffffffffffffffffffffffffff1681526020019081526020016000206000838152602001908152602001600020604051806080016040529081600082015481526020016001820180546109f790612281565b80601f0160208091040260200160405190810160405280929190818152602001828054610a2390612281565b8015610a705780601f10610a4557610100808354040283529160200191610a70565b820191906000526020600020905b815481529060010190602001808311610a5357829003601f168201915b5050505050815260200160028201805480602002602001604051908101604052809291908181526020016000905b82821015610b4a578382906000526020600020018054610abd90612281565b80601f0160208091040260200160405190810160405280929190818152602001828054610ae990612281565b8015610b365780601f10610b0b57610100808354040283529160200191610b36565b820191906000526020600020905b815481529060010190602001808311610b1957829003601f168201915b505050505081526020019060010190610a9e565b505050508152602001600382015481525050905092915050565b8573ffffffffffffffffffffffffffffffffffffffff163373ffffffffffffffffffffffffffffffffffffffff1614610bd2576040517f08c379a0000000000000000000000000000000000000000000000000000000008152600401610bc9906122fe565b60405180910390fd5b6000604051806080016040528087815260200186815260200184815260200185815250905080600360008973ffffffffffffffffffffffffffffffffffffffff1673ffffffffffffffffffffffffffffffffffffffff1681526020019081526020016000206000888152602001908152602001600020600082015181600001556020820151816001019081610c6791906124ca565b506040820151816002019080519060200190610c84929190611358565b506060820151816003015590505083600160008973ffffffffffffffffffffffffffffffffffffffff1673ffffffffffffffffffffffffffffffffffffffff16815260200190815260200160002083604051610ce091906121c4565b908152602001604051809103902054610cf9919061259c565b600160008973ffffffffffffffffffffffffffffffffffffffff1673ffffffffffffffffffffffffffffffffffffffff16815260200190815260200160002083604051610d4691906121c4565b90815260200160405180910390208190555050505050505050565b8473ffffffffffffffffffffffffffffffffffffffff163373ffffffffffffffffffffffffffffffffffffffff1614610dcf576040517f08c379a0000000000000000000000000000000000000000000000000000000008152600401610dc69061261c565b60405180910390fd5b813414610e11576040517f08c379a0000000000000000000000000000000000000000000000000000000008152600401610e089061261c565b60405180910390fd5b6000604051806080016040528086815260200185815260200184815260200183815250905082600160008873ffffffffffffffffffffffffffffffffffffffff1673ffffffffffffffffffffffffffffffffffffffff16815260200190815260200160002086604051610e8491906121c4565b9081526020016040518091039020541015610ed4576040517f08c379a0000000000000000000000000000000000000000000000000000000008152600401610ecb90612688565b60405180910390fd5b6000808773ffffffffffffffffffffffffffffffffffffffff1673ffffffffffffffffffffffffffffffffffffffff1681526020019081526020016000208190806001815401808255809150506001900390600052602060002090600402016000909190919091506000820151816000019081610f5191906124ca565b506020820151816001019081610f6791906124ca565b506040820151816002015560608201518160030155505082600160008873ffffffffffffffffffffffffffffffffffffffff1673ffffffffffffffffffffffffffffffffffffffff16815260200190815260200160002086604051610fcc91906121c4565b908152602001604051809103902054610fe5919061259c565b600160008873ffffffffffffffffffffffffffffffffffffffff1673ffffffffffffffffffffffffffffffffffffffff1681526020019081526020016000208660405161103291906121c4565b90815260200160405180910390208190555081600160008873ffffffffffffffffffffffffffffffffffffffff1673ffffffffffffffffffffffffffffffffffffffff1681526020019081526020016000208660405161109291906121c4565b9081526020016040518091039020546110ab91906126a8565b600160008873ffffffffffffffffffffffffffffffffffffffff1673ffffffffffffffffffffffffffffffffffffffff168152602001908152602001600020856040516110f891906121c4565b908152602001604051809103902081905550505050505050565b6000600160008473ffffffffffffffffffffffffffffffffffffffff1673ffffffffffffffffffffffffffffffffffffffff1681526020019081526020016000208260405161116191906121c4565b908152602001604051809103902054905092915050565b611180611426565b600260008373ffffffffffffffffffffffffffffffffffffffff1673ffffffffffffffffffffffffffffffffffffffff1681526020019081526020016000206040518060600160405290816000820160009054906101000a900473ffffffffffffffffffffffffffffffffffffffff1673ffffffffffffffffffffffffffffffffffffffff1673ffffffffffffffffffffffffffffffffffffffff16815260200160018201805480602002602001604051908101604052809291908181526020016000905b828210156112f157838290600052602060002001805461126490612281565b80601f016020809104026020016040519081016040528092919081815260200182805461129090612281565b80156112dd5780601f106112b2576101008083540402835291602001916112dd565b820191906000526020600020905b8154815290600101906020018083116112c057829003601f168201915b505050505081526020019060010190611245565b5050505081526020016002820180548060200260200160405190810160405280929190818152602001828054801561134857602002820191906000526020600020905b815481526020019060010190808311611334575b5050505050815250509050919050565b8280548282559060005260206000209081019282156113a0579160200282015b8281111561139f57825182908161138f91906124ca565b5091602001919060010190611378565b5b5090506113ad919061145d565b5090565b8280548282559060005260206000209081019282156113ed579160200282015b828111156113ec5782518255916020019190600101906113d1565b5b5090506113fa9190611481565b5090565b6040518060800160405280600081526020016060815260200160608152602001600081525090565b6040518060600160405280600073ffffffffffffffffffffffffffffffffffffffff16815260200160608152602001606081525090565b5b8082111561147d5760008181611474919061149e565b5060010161145e565b5090565b5b8082111561149a576000816000905550600101611482565b5090565b5080546114aa90612281565b6000825580601f106114bc57506114db565b601f0160209004906000526020600020908101906114da9190611481565b5b50565b6000604051905090565b600080fd5b600080fd5b600073ffffffffffffffffffffffffffffffffffffffff82169050919050565b600061151d826114f2565b9050919050565b61152d81611512565b811461153857600080fd5b50565b60008135905061154a81611524565b92915050565b600080fd5b6000601f19601f8301169050919050565b7f4e487b7100000000000000000000000000000000000000000000000000000000600052604160045260246000fd5b61159e82611555565b810181811067ffffffffffffffff821117156115bd576115bc611566565b5b80604052505050565b60006115d06114de565b90506115dc8282611595565b919050565b600067ffffffffffffffff8211156115fc576115fb611566565b5b602082029050602081019050919050565b600080fd5b600080fd5b600067ffffffffffffffff82111561163257611631611566565b5b61163b82611555565b9050602081019050919050565b82818337600083830152505050565b600061166a61166584611617565b6115c6565b90508281526020810184848401111561168657611685611612565b5b611691848285611648565b509392505050565b600082601f8301126116ae576116ad611550565b5b81356116be848260208601611657565b91505092915050565b60006116da6116d5846115e1565b6115c6565b905080838252602082019050602084028301858111156116fd576116fc61160d565b5b835b8181101561174457803567ffffffffffffffff81111561172257611721611550565b5b80860161172f8982611699565b855260208501945050506020810190506116ff565b5050509392505050565b600082601f83011261176357611762611550565b5b81356117738482602086016116c7565b91505092915050565b600067ffffffffffffffff82111561179757611796611566565b5b602082029050602081019050919050565b6000819050919050565b6117bb816117a8565b81146117c657600080fd5b50565b6000813590506117d8816117b2565b92915050565b60006117f16117ec8461177c565b6115c6565b905080838252602082019050602084028301858111156118145761181361160d565b5b835b8181101561183d578061182988826117c9565b845260208401935050602081019050611816565b5050509392505050565b600082601f83011261185c5761185b611550565b5b813561186c8482602086016117de565b91505092915050565b60008060006060848603121561188e5761188d6114e8565b5b600061189c8682870161153b565b935050602084013567ffffffffffffffff8111156118bd576118bc6114ed565b5b6118c98682870161174e565b925050604084013567ffffffffffffffff8111156118ea576118e96114ed565b5b6118f686828701611847565b9150509250925092565b60008060408385031215611917576119166114e8565b5b60006119258582860161153b565b9250506020611936858286016117c9565b9150509250929050565b600081519050919050565b600082825260208201905092915050565b60005b8381101561197a57808201518184015260208101905061195f565b60008484015250505050565b600061199182611940565b61199b818561194b565b93506119ab81856020860161195c565b6119b481611555565b840191505092915050565b6119c8816117a8565b82525050565b600060808201905081810360008301526119e88187611986565b905081810360208301526119fc8186611986565b9050611a0b60408301856119bf565b611a1860608301846119bf565b95945050505050565b6000606082019050611a3660008301866119bf565b8181036020830152611a488185611986565b9050611a5760408301846119bf565b949350505050565b600060208284031215611a7557611a746114e8565b5b6000611a838482850161153b565b91505092915050565b600081519050919050565b600082825260208201905092915050565b6000819050602082019050919050565b600082825260208201905092915050565b6000611ad482611940565b611ade8185611ab8565b9350611aee81856020860161195c565b611af781611555565b840191505092915050565b611b0b816117a8565b82525050565b60006080830160008301518482036000860152611b2e8282611ac9565b91505060208301518482036020860152611b488282611ac9565b9150506040830151611b5d6040860182611b02565b506060830151611b706060860182611b02565b508091505092915050565b6000611b878383611b11565b905092915050565b6000602082019050919050565b6000611ba782611a8c565b611bb18185611a97565b935083602082028501611bc385611aa8565b8060005b85811015611bff5784840389528151611be08582611b7b565b9450611beb83611b8f565b925060208a01995050600181019050611bc7565b50829750879550505050505092915050565b60006020820190508181036000830152611c2b8184611b9c565b905092915050565b611c3c81611512565b82525050565b6000602082019050611c576000830184611c33565b92915050565b60008060408385031215611c7457611c736114e8565b5b6000611c828582860161153b565b925050602083013567ffffffffffffffff811115611ca357611ca26114ed565b5b611caf85828601611699565b9150509250929050565b6000602082019050611cce60008301846119bf565b92915050565b600081519050919050565b600082825260208201905092915050565b6000819050602082019050919050565b6000611d0c8383611ac9565b905092915050565b6000602082019050919050565b6000611d2c82611cd4565b611d368185611cdf565b935083602082028501611d4885611cf0565b8060005b85811015611d845784840389528151611d658582611d00565b9450611d7083611d14565b925060208a01995050600181019050611d4c565b50829750879550505050505092915050565b6000608083016000830151611dae6000860182611b02565b5060208301518482036020860152611dc68282611ac9565b91505060408301518482036040860152611de08282611d21565b9150506060830151611df56060860182611b02565b508091505092915050565b60006020820190508181036000830152611e1a8184611d96565b905092915050565b60008060008060008060c08789031215611e3f57611e3e6114e8565b5b6000611e4d89828a0161153b565b9650506020611e5e89828a016117c9565b955050604087013567ffffffffffffffff811115611e7f57611e7e6114ed565b5b611e8b89828a01611699565b9450506060611e9c89828a016117c9565b935050608087013567ffffffffffffffff811115611ebd57611ebc6114ed565b5b611ec989828a0161174e565b92505060a087013567ffffffffffffffff811115611eea57611ee96114ed565b5b611ef689828a01611699565b9150509295509295509295565b600080600080600060a08688031215611f1f57611f1e6114e8565b5b6000611f2d8882890161153b565b955050602086013567ffffffffffffffff811115611f4e57611f4d6114ed565b5b611f5a88828901611699565b945050604086013567ffffffffffffffff811115611f7b57611f7a6114ed565b5b611f8788828901611699565b9350506060611f98888289016117c9565b9250506080611fa9888289016117c9565b9150509295509295909350565b611fbf81611512565b82525050565b600081519050919050565b600082825260208201905092915050565b6000819050602082019050919050565b6000611ffd8383611b02565b60208301905092915050565b6000602082019050919050565b600061202182611fc5565b61202b8185611fd0565b935061203683611fe1565b8060005b8381101561206757815161204e8882611ff1565b975061205983612009565b92505060018101905061203a565b5085935050505092915050565b600060608301600083015161208c6000860182611fb6565b50602083015184820360208601526120a48282611d21565b915050604083015184820360408601526120be8282612016565b9150508091505092915050565b600060208201905081810360008301526120e58184612074565b905092915050565b7f596f752063616e6e6f7420696e697469616c697a650000000000000000000000600082015250565b600061212360158361194b565b915061212e826120ed565b602082019050919050565b6000602082019050818103600083015261215281612116565b9050919050565b7f4e487b7100000000000000000000000000000000000000000000000000000000600052603260045260246000fd5b600081905092915050565b600061219e82611940565b6121a88185612188565b93506121b881856020860161195c565b80840191505092915050565b60006121d08284612193565b915081905092915050565b7f4e487b7100000000000000000000000000000000000000000000000000000000600052601160045260246000fd5b6000612215826117a8565b91507fffffffffffffffffffffffffffffffffffffffffffffffffffffffffffffffff8203612247576122466121db565b5b600182019050919050565b7f4e487b7100000000000000000000000000000000000000000000000000000000600052602260045260246000fd5b6000600282049050600182168061229957607f821691505b6020821081036122ac576122ab612252565b5b50919050565b7f43616e277420696e697469616c697a6500000000000000000000000000000000600082015250565b60006122e860108361194b565b91506122f3826122b2565b602082019050919050565b60006020820190508181036000830152612317816122db565b9050919050565b60008190508160005260206000209050919050565b60006020601f8301049050919050565b600082821b905092915050565b6000600883026123807fffffffffffffffffffffffffffffffffffffffffffffffffffffffffffffffff82612343565b61238a8683612343565b95508019841693508086168417925050509392505050565b6000819050919050565b60006123c76123c26123bd846117a8565b6123a2565b6117a8565b9050919050565b6000819050919050565b6123e1836123ac565b6123f56123ed826123ce565b848454612350565b825550505050565b600090565b61240a6123fd565b6124158184846123d8565b505050565b5b818110156124395761242e600082612402565b60018101905061241b565b5050565b601f82111561247e5761244f8161231e565b61245884612333565b81016020851015612467578190505b61247b61247385612333565b83018261241a565b50505b505050565b600082821c905092915050565b60006124a160001984600802612483565b1980831691505092915050565b60006124ba8383612490565b9150826002028217905092915050565b6124d382611940565b67ffffffffffffffff8111156124ec576124eb611566565b5b6124f68254612281565b61250182828561243d565b600060209050601f8311600181146125345760008415612522578287015190505b61252c85826124ae565b865550612594565b601f1984166125428661231e565b60005b8281101561256a57848901518255600182019150602085019450602081019050612545565b868310156125875784890151612583601f891682612490565b8355505b6001600288020188555050505b505050505050565b60006125a7826117a8565b91506125b2836117a8565b92508282039050818111156125ca576125c96121db565b5b92915050565b7f596f752063616e6e6f7420737761700000000000000000000000000000000000600082015250565b6000612606600f8361194b565b9150612611826125d0565b602082019050919050565b60006020820190508181036000830152612635816125f9565b9050919050565b7f4e6f2070726f7065722062616c616e6365000000000000000000000000000000600082015250565b600061267260118361194b565b915061267d8261263c565b602082019050919050565b600060208201905081810360008301526126a181612665565b9050919050565b60006126b3826117a8565b91506126be836117a8565b92508282019050808211156126d6576126d56121db565b5b9291505056fea26469706673582212202baf90182002287fb7310fd97ae214e0a524389d22ba5232231c91aff6e45aa164736f6c63430008110033",
  "linkReferences": {},
  "deployedLinkReferences": {}
}